{
  "_format": "hh-sol-artifact-1",
  "contractName": "MockAccessToken",
  "sourceName": "contracts/MockAccessToken.sol",
  "abi": [
    {
      "inputs": [],
      "stateMutability": "nonpayable",
      "type": "constructor"
    },
    {
      "inputs": [
        {
          "internalType": "address",
          "name": "spender",
          "type": "address"
        },
        {
          "internalType": "uint256",
          "name": "allowance",
          "type": "uint256"
        },
        {
          "internalType": "uint256",
          "name": "needed",
          "type": "uint256"
        }
      ],
      "name": "ERC20InsufficientAllowance",
      "type": "error"
    },
    {
      "inputs": [
        {
          "internalType": "address",
          "name": "sender",
          "type": "address"
        },
        {
          "internalType": "uint256",
          "name": "balance",
          "type": "uint256"
        },
        {
          "internalType": "uint256",
          "name": "needed",
          "type": "uint256"
        }
      ],
      "name": "ERC20InsufficientBalance",
      "type": "error"
    },
    {
      "inputs": [
        {
          "internalType": "address",
          "name": "approver",
          "type": "address"
        }
      ],
      "name": "ERC20InvalidApprover",
      "type": "error"
    },
    {
      "inputs": [
        {
          "internalType": "address",
          "name": "receiver",
          "type": "address"
        }
      ],
      "name": "ERC20InvalidReceiver",
      "type": "error"
    },
    {
      "inputs": [
        {
          "internalType": "address",
          "name": "sender",
          "type": "address"
        }
      ],
      "name": "ERC20InvalidSender",
      "type": "error"
    },
    {
      "inputs": [
        {
          "internalType": "address",
          "name": "spender",
          "type": "address"
        }
      ],
      "name": "ERC20InvalidSpender",
      "type": "error"
    },
    {
      "anonymous": false,
      "inputs": [
        {
          "indexed": true,
          "internalType": "address",
          "name": "owner",
          "type": "address"
        },
        {
          "indexed": true,
          "internalType": "address",
          "name": "spender",
          "type": "address"
        },
        {
          "indexed": false,
          "internalType": "uint256",
          "name": "value",
          "type": "uint256"
        }
      ],
      "name": "Approval",
      "type": "event"
    },
    {
      "anonymous": false,
      "inputs": [
        {
          "indexed": true,
          "internalType": "address",
          "name": "from",
          "type": "address"
        },
        {
          "indexed": true,
          "internalType": "address",
          "name": "to",
          "type": "address"
        },
        {
          "indexed": false,
          "internalType": "uint256",
          "name": "value",
          "type": "uint256"
        }
      ],
      "name": "Transfer",
      "type": "event"
    },
    {
      "inputs": [
        {
          "internalType": "address",
          "name": "owner",
          "type": "address"
        },
        {
          "internalType": "address",
          "name": "spender",
          "type": "address"
        }
      ],
      "name": "allowance",
      "outputs": [
        {
          "internalType": "uint256",
          "name": "",
          "type": "uint256"
        }
      ],
      "stateMutability": "view",
      "type": "function"
    },
    {
      "inputs": [
        {
          "internalType": "address",
          "name": "spender",
          "type": "address"
        },
        {
          "internalType": "uint256",
          "name": "value",
          "type": "uint256"
        }
      ],
      "name": "approve",
      "outputs": [
        {
          "internalType": "bool",
          "name": "",
          "type": "bool"
        }
      ],
      "stateMutability": "nonpayable",
      "type": "function"
    },
    {
      "inputs": [
        {
          "internalType": "address",
          "name": "account",
          "type": "address"
        }
      ],
      "name": "balanceOf",
      "outputs": [
        {
          "internalType": "uint256",
          "name": "",
          "type": "uint256"
        }
      ],
      "stateMutability": "view",
      "type": "function"
    },
    {
      "inputs": [],
      "name": "decimals",
      "outputs": [
        {
          "internalType": "uint8",
          "name": "",
          "type": "uint8"
        }
      ],
      "stateMutability": "view",
      "type": "function"
    },
    {
      "inputs": [
        {
          "internalType": "address",
          "name": "to",
          "type": "address"
        },
        {
          "internalType": "uint256",
          "name": "amount",
          "type": "uint256"
        }
      ],
      "name": "mint",
      "outputs": [],
      "stateMutability": "nonpayable",
      "type": "function"
    },
    {
      "inputs": [],
      "name": "mintToSelf",
      "outputs": [],
      "stateMutability": "nonpayable",
      "type": "function"
    },
    {
      "inputs": [],
      "name": "name",
      "outputs": [
        {
          "internalType": "string",
          "name": "",
          "type": "string"
        }
      ],
      "stateMutability": "view",
      "type": "function"
    },
    {
      "inputs": [],
      "name": "symbol",
      "outputs": [
        {
          "internalType": "string",
          "name": "",
          "type": "string"
        }
      ],
      "stateMutability": "view",
      "type": "function"
    },
    {
      "inputs": [],
      "name": "totalSupply",
      "outputs": [
        {
          "internalType": "uint256",
          "name": "",
          "type": "uint256"
        }
      ],
      "stateMutability": "view",
      "type": "function"
    },
    {
      "inputs": [
        {
          "internalType": "address",
          "name": "to",
          "type": "address"
        },
        {
          "internalType": "uint256",
          "name": "value",
          "type": "uint256"
        }
      ],
      "name": "transfer",
      "outputs": [
        {
          "internalType": "bool",
          "name": "",
          "type": "bool"
        }
      ],
      "stateMutability": "nonpayable",
      "type": "function"
    },
    {
      "inputs": [
        {
          "internalType": "address",
          "name": "from",
          "type": "address"
        },
        {
          "internalType": "address",
          "name": "to",
          "type": "address"
        },
        {
          "internalType": "uint256",
          "name": "value",
          "type": "uint256"
        }
      ],
      "name": "transferFrom",
      "outputs": [
        {
          "internalType": "bool",
          "name": "",
          "type": "bool"
        }
      ],
      "stateMutability": "nonpayable",
      "type": "function"
    }
  ],
  "bytecode": "0x60806040523480156200001157600080fd5b506040518060400160405280601181526020017f4d6f636b2041636365737320546f6b656e0000000000000000000000000000008152506040518060400160405280600381526020017f4d4154000000000000000000000000000000000000000000000000000000000081525081600390816200008f9190620005fd565b508060049081620000a19190620005fd565b505050620000c03369d3c21bcecceda1000000620000c660201b60201c565b6200081b565b600073ffffffffffffffffffffffffffffffffffffffff168273ffffffffffffffffffffffffffffffffffffffff16036200013b5760006040517fec442f0500000000000000000000000000000000000000000000000000000000815260040162000132919062000729565b60405180910390fd5b6200014f600083836200015360201b60201c565b5050565b600073ffffffffffffffffffffffffffffffffffffffff168373ffffffffffffffffffffffffffffffffffffffff1603620001a95780600260008282546200019c919062000775565b925050819055506200027f565b60008060008573ffffffffffffffffffffffffffffffffffffffff1673ffffffffffffffffffffffffffffffffffffffff1681526020019081526020016000205490508181101562000238578381836040517fe450d38c0000000000000000000000000000000000000000000000000000000081526004016200022f93929190620007c1565b60405180910390fd5b8181036000808673ffffffffffffffffffffffffffffffffffffffff1673ffffffffffffffffffffffffffffffffffffffff16815260200190815260200160002081905550505b600073ffffffffffffffffffffffffffffffffffffffff168273ffffffffffffffffffffffffffffffffffffffff1603620002ca578060026000828254039250508190555062000317565b806000808473ffffffffffffffffffffffffffffffffffffffff1673ffffffffffffffffffffffffffffffffffffffff168152602001908152602001600020600082825401925050819055505b8173ffffffffffffffffffffffffffffffffffffffff168373ffffffffffffffffffffffffffffffffffffffff167fddf252ad1be2c89b69c2b068fc378daa952ba7f163c4a11628f55a4df523b3ef83604051620003769190620007fe565b60405180910390a3505050565b600081519050919050565b7f4e487b7100000000000000000000000000000000000000000000000000000000600052604160045260246000fd5b7f4e487b7100000000000000000000000000000000000000000000000000000000600052602260045260246000fd5b600060028204905060018216806200040557607f821691505b6020821081036200041b576200041a620003bd565b5b50919050565b60008190508160005260206000209050919050565b60006020601f8301049050919050565b600082821b905092915050565b600060088302620004857fffffffffffffffffffffffffffffffffffffffffffffffffffffffffffffffff8262000446565b62000491868362000446565b95508019841693508086168417925050509392505050565b6000819050919050565b6000819050919050565b6000620004de620004d8620004d284620004a9565b620004b3565b620004a9565b9050919050565b6000819050919050565b620004fa83620004bd565b620005126200050982620004e5565b84845462000453565b825550505050565b600090565b620005296200051a565b62000536818484620004ef565b505050565b5b818110156200055e57620005526000826200051f565b6001810190506200053c565b5050565b601f821115620005ad57620005778162000421565b620005828462000436565b8101602085101562000592578190505b620005aa620005a18562000436565b8301826200053b565b50505b505050565b600082821c905092915050565b6000620005d260001984600802620005b2565b1980831691505092915050565b6000620005ed8383620005bf565b9150826002028217905092915050565b620006088262000383565b67ffffffffffffffff8111156200062457620006236200038e565b5b620006308254620003ec565b6200063d82828562000562565b600060209050601f83116001811462000675576000841562000660578287015190505b6200066c8582620005df565b865550620006dc565b601f198416620006858662000421565b60005b82811015620006af5784890151825560018201915060208501945060208101905062000688565b86831015620006cf5784890151620006cb601f891682620005bf565b8355505b6001600288020188555050505b505050505050565b600073ffffffffffffffffffffffffffffffffffffffff82169050919050565b60006200071182620006e4565b9050919050565b620007238162000704565b82525050565b600060208201905062000740600083018462000718565b92915050565b7f4e487b7100000000000000000000000000000000000000000000000000000000600052601160045260246000fd5b60006200078282620004a9565b91506200078f83620004a9565b9250828201905080821115620007aa57620007a962000746565b5b92915050565b620007bb81620004a9565b82525050565b6000606082019050620007d8600083018662000718565b620007e76020830185620007b0565b620007f66040830184620007b0565b949350505050565b6000602082019050620008156000830184620007b0565b92915050565b610f36806200082b6000396000f3fe608060405234801561001057600080fd5b50600436106100a95760003560e01c806340c10f191161007157806340c10f1914610168578063476aafad1461018457806370a082311461018e57806395d89b41146101be578063a9059cbb146101dc578063dd62ed3e1461020c576100a9565b806306fdde03146100ae578063095ea7b3146100cc57806318160ddd146100fc57806323b872dd1461011a578063313ce5671461014a575b600080fd5b6100b661023c565b6040516100c39190610b8a565b60405180910390f35b6100e660048036038101906100e19190610c45565b6102ce565b6040516100f39190610ca0565b60405180910390f35b6101046102f1565b6040516101119190610cca565b60405180910390f35b610134600480360381019061012f9190610ce5565b6102fb565b6040516101419190610ca0565b60405180910390f35b61015261032a565b60405161015f9190610d54565b60405180910390f35b610182600480360381019061017d9190610c45565b610333565b005b61018c610341565b005b6101a860048036038101906101a39190610d6f565b610355565b6040516101b59190610cca565b60405180910390f35b6101c661039d565b6040516101d39190610b8a565b60405180910390f35b6101f660048036038101906101f19190610c45565b61042f565b6040516102039190610ca0565b60405180910390f35b61022660048036038101906102219190610d9c565b610452565b6040516102339190610cca565b60405180910390f35b60606003805461024b90610e0b565b80601f016020809104026020016040519081016040528092919081815260200182805461027790610e0b565b80156102c45780601f10610299576101008083540402835291602001916102c4565b820191906000526020600020905b8154815290600101906020018083116102a757829003601f168201915b5050505050905090565b6000806102d96104d9565b90506102e68185856104e1565b600191505092915050565b6000600254905090565b6000806103066104d9565b90506103138582856104f3565b61031e858585610588565b60019150509392505050565b60006012905090565b61033d828261067c565b5050565b61035333670de0b6b3a764000061067c565b565b60008060008373ffffffffffffffffffffffffffffffffffffffff1673ffffffffffffffffffffffffffffffffffffffff168152602001908152602001600020549050919050565b6060600480546103ac90610e0b565b80601f01602080910402602001604051908101604052809291908181526020018280546103d890610e0b565b80156104255780601f106103fa57610100808354040283529160200191610425565b820191906000526020600020905b81548152906001019060200180831161040857829003601f168201915b5050505050905090565b60008061043a6104d9565b9050610447818585610588565b600191505092915050565b6000600160008473ffffffffffffffffffffffffffffffffffffffff1673ffffffffffffffffffffffffffffffffffffffff16815260200190815260200160002060008373ffffffffffffffffffffffffffffffffffffffff1673ffffffffffffffffffffffffffffffffffffffff16815260200190815260200160002054905092915050565b600033905090565b6104ee83838360016106fe565b505050565b60006104ff8484610452565b90507fffffffffffffffffffffffffffffffffffffffffffffffffffffffffffffffff8110156105825781811015610572578281836040517ffb8f41b200000000000000000000000000000000000000000000000000000000815260040161056993929190610e4b565b60405180910390fd5b610581848484840360006106fe565b5b50505050565b600073ffffffffffffffffffffffffffffffffffffffff168373ffffffffffffffffffffffffffffffffffffffff16036105fa5760006040517f96c6fd1e0000000000000000000000000000000000000000000000000000000081526004016105f19190610e82565b60405180910390fd5b600073ffffffffffffffffffffffffffffffffffffffff168273ffffffffffffffffffffffffffffffffffffffff160361066c5760006040517fec442f050000000000000000000000000000000000000000000000000000000081526004016106639190610e82565b60405180910390fd5b6106778383836108d5565b505050565b600073ffffffffffffffffffffffffffffffffffffffff168273ffffffffffffffffffffffffffffffffffffffff16036106ee5760006040517fec442f050000000000000000000000000000000000000000000000000000000081526004016106e59190610e82565b60405180910390fd5b6106fa600083836108d5565b5050565b600073ffffffffffffffffffffffffffffffffffffffff168473ffffffffffffffffffffffffffffffffffffffff16036107705760006040517fe602df050000000000000000000000000000000000000000000000000000000081526004016107679190610e82565b60405180910390fd5b600073ffffffffffffffffffffffffffffffffffffffff168373ffffffffffffffffffffffffffffffffffffffff16036107e25760006040517f94280d620000000000000000000000000000000000000000000000000000000081526004016107d99190610e82565b60405180910390fd5b81600160008673ffffffffffffffffffffffffffffffffffffffff1673ffffffffffffffffffffffffffffffffffffffff16815260200190815260200160002060008573ffffffffffffffffffffffffffffffffffffffff1673ffffffffffffffffffffffffffffffffffffffff1681526020019081526020016000208190555080156108cf578273ffffffffffffffffffffffffffffffffffffffff168473ffffffffffffffffffffffffffffffffffffffff167f8c5be1e5ebec7d5bd14f71427d1e84f3dd0314c0f7b2291e5b200ac8c7c3b925846040516108c69190610cca565b60405180910390a35b50505050565b600073ffffffffffffffffffffffffffffffffffffffff168373ffffffffffffffffffffffffffffffffffffffff160361092757806002600082825461091b9190610ecc565b925050819055506109fa565b60008060008573ffffffffffffffffffffffffffffffffffffffff1673ffffffffffffffffffffffffffffffffffffffff168152602001908152602001600020549050818110156109b3578381836040517fe450d38c0000000000000000000000000000000000000000000000000000000081526004016109aa93929190610e4b565b60405180910390fd5b8181036000808673ffffffffffffffffffffffffffffffffffffffff1673ffffffffffffffffffffffffffffffffffffffff16815260200190815260200160002081905550505b600073ffffffffffffffffffffffffffffffffffffffff168273ffffffffffffffffffffffffffffffffffffffff1603610a435780600260008282540392505081905550610a90565b806000808473ffffffffffffffffffffffffffffffffffffffff1673ffffffffffffffffffffffffffffffffffffffff168152602001908152602001600020600082825401925050819055505b8173ffffffffffffffffffffffffffffffffffffffff168373ffffffffffffffffffffffffffffffffffffffff167fddf252ad1be2c89b69c2b068fc378daa952ba7f163c4a11628f55a4df523b3ef83604051610aed9190610cca565b60405180910390a3505050565b600081519050919050565b600082825260208201905092915050565b60005b83811015610b34578082015181840152602081019050610b19565b60008484015250505050565b6000601f19601f8301169050919050565b6000610b5c82610afa565b610b668185610b05565b9350610b76818560208601610b16565b610b7f81610b40565b840191505092915050565b60006020820190508181036000830152610ba48184610b51565b905092915050565b600080fd5b600073ffffffffffffffffffffffffffffffffffffffff82169050919050565b6000610bdc82610bb1565b9050919050565b610bec81610bd1565b8114610bf757600080fd5b50565b600081359050610c0981610be3565b92915050565b6000819050919050565b610c2281610c0f565b8114610c2d57600080fd5b50565b600081359050610c3f81610c19565b92915050565b60008060408385031215610c5c57610c5b610bac565b5b6000610c6a85828601610bfa565b9250506020610c7b85828601610c30565b9150509250929050565b60008115159050919050565b610c9a81610c85565b82525050565b6000602082019050610cb56000830184610c91565b92915050565b610cc481610c0f565b82525050565b6000602082019050610cdf6000830184610cbb565b92915050565b600080600060608486031215610cfe57610cfd610bac565b5b6000610d0c86828701610bfa565b9350506020610d1d86828701610bfa565b9250506040610d2e86828701610c30565b9150509250925092565b600060ff82169050919050565b610d4e81610d38565b82525050565b6000602082019050610d696000830184610d45565b92915050565b600060208284031215610d8557610d84610bac565b5b6000610d9384828501610bfa565b91505092915050565b60008060408385031215610db357610db2610bac565b5b6000610dc185828601610bfa565b9250506020610dd285828601610bfa565b9150509250929050565b7f4e487b7100000000000000000000000000000000000000000000000000000000600052602260045260246000fd5b60006002820490506001821680610e2357607f821691505b602082108103610e3657610e35610ddc565b5b50919050565b610e4581610bd1565b82525050565b6000606082019050610e606000830186610e3c565b610e6d6020830185610cbb565b610e7a6040830184610cbb565b949350505050565b6000602082019050610e976000830184610e3c565b92915050565b7f4e487b7100000000000000000000000000000000000000000000000000000000600052601160045260246000fd5b6000610ed782610c0f565b9150610ee283610c0f565b9250828201905080821115610efa57610ef9610e9d565b5b9291505056fea26469706673582212200cf6faa1cd18be40ccf0d64896be935d5fec3acd7b6296ff1e15454716e5540464736f6c63430008170033",
  "linkReferences": {},
  "deployedLinkReferences": {}
}